:100000000C9435000C94B9020C9492020C94FB03EE
:100010000C94FB030C94FB030C945D000C945D00AA
:100020000C945D000C945D000C945D000C945D00DC
:100030000C945D000C945D000C945D000C945D00CC
:100040000C9448020C945D000C9416020C94F00180
:100050000C945D000C945D000C945D000C945D00AC
:100060000C94E0020C945D00050411241FBECFEF38
:10007000D8E0DEBFCDBF11E0A0E0B1E0E0E2FAE001
:1000800002C005900D92AA31B107D9F722E0AAE18A
:10009000B1E001C01D92A133B207E1F710E0C5E362
:1000A000D0E004C02197FE010E940805C433D107A7
:1000B000C9F70E9432040C940E050C940000AF9214
:1000C000BF92CF92DF92EF92FF920F931F93CF9345
:1000D000DF936C017B018B01040F151FEB015E01A7
:1000E000AE18BF08C017D10759F06991D601ED913C
:1000F000FC910190F081E02DC6010995892B79F7DB
:10010000C501DF91CF911F910F91FF90EF90DF908C
:10011000CF90BF90AF900895FC01538D448D252F53
:1001200030E0842F90E0821B930B541710F0CF9691
:10013000089501970895FC01918D828D981761F0C3
:10014000A28DAE0FBF2FB11D5D968C91928D9F5FDA
:100150009F73928F90E008958FEF9FEF0895FC01B9
:10016000918D828D981731F0828DE80FF11D858D6C
:1001700090E008958FEF9FEF0895FC01918D228DFF
:10018000892F90E0805C9F4F821B91098F73992784
:10019000089584E991E00E94BD0021E0892B09F4D3
:1001A00020E0822F089580E090E0892B29F00E94C2
:1001B000C90081110C9400000895FC01A48DA80FC2
:1001C000B92FB11DA35ABF4F2C91848D90E0019699
:1001D0008F739927848FA689B7892C93A089B189B9
:1001E0008C91837080648C93938D848D981306C05A
:1001F0000288F389E02D80818F7D80830895EF92BE
:10020000FF920F931F93CF93DF93EC0181E0888FD0
:100210009B8D8C8D98131AC0E889F989808185FFA0
:1002200015C09FB7F894EE89FF896083E889F98942
:1002300080818370806480839FBF81E090E0DF9144
:10024000CF911F910F91FF90EF900895F62E0B8D97
:1002500010E00F5F1F4F0F731127E02E8C8D8E1152
:100260000CC00FB607FCFACFE889F989808185FFB9
:10027000F5CFCE010E94DD00F1CFEB8DEC0FFD2F0D
:10028000F11DE35AFF4FF0829FB7F8940B8FEA8974
:10029000FB8980818062CFCFCF93DF93EC01888D83
:1002A0008823B9F0AA89BB89E889F9898C9185FDF1
:1002B00003C0808186FD0DC00FB607FCF7CF8C917F
:1002C00085FFF2CF808185FFEDCFCE010E94DD005A
:1002D000E9CFDF91CF9108953FB7F89480919001D5
:1002E00090919101A0919201B091930126B5A89BA4
:1002F00005C02F3F19F00196A11DB11D3FBFBA2FB8
:10030000A92F982F8827BC01CD01620F711D811D77
:10031000911D42E0660F771F881F991F4A95D1F7FC
:100320000895089585ED8093BC008091BC0084FD04
:10033000FCCF10926501089520914101260F3327CB
:10034000331F21323105ECF420916501FC0190E06E
:1003500080E0243069F082E00895A091410121916C
:10036000AC014F5D5E4FA40FB52FB11D2C930196CC
:10037000861798F380914101680F6093410180E0F6
:10038000089581E0089508958FEF9FEF08958FEF0E
:100390009FEF08958091200190E0919581959109BA
:1003A0000895CF93DF93CB01EA01642F0E949C0153
:1003B000CE01DF91CF910895CF93DF931F92CDB7F8
:1003C000DEB7698361E0CE0101960E949C0181E065
:1003D00090E00F90DF91CF91089590E080E0089534
:1003E0001F920F920FB60F9211242F933F934F93AA
:1003F0005F936F937F938F939F93AF93BF93EF938D
:10040000FF9384E991E00E94DD00FF91EF91BF919D
:10041000AF919F918F917F916F915F914F913F919C
:100420002F910F900FBE0F901F9018951F920F9253
:100430000FB60F9211242F938F939F93EF93FF93F7
:10044000E091A401F091A5018081E091AA01F091D1
:10045000AB0182FD1BC090818091AD018F5F8F73D6
:100460002091AE01821741F0E091AD01F0E0EC5631
:10047000FE4F958F8093AD01FF91EF919F918F91EA
:100480002F910F900FBE0F901F9018958081F4CF81
:100490001F920F920FB60F9211242F933F938F93B9
:1004A0009F93AF93BF9380918C0190918D01A09108
:1004B0008E01B0918F0130918B0123E0230F2D37F6
:1004C00058F50196A11DB11D20938B0180938C01DD
:1004D00090938D01A0938E01B0938F018091900134
:1004E00090919101A0919201B09193010196A11D6B
:1004F000B11D8093900190939101A0939201B093CC
:100500009301BF91AF919F918F913F912F910F9048
:100510000FBE0F901F90189526E8230F0296A11D7D
:10052000B11DD2CF1F920F920FB60F9211242F93AD
:100530003F934F935F936F937F938F939F93AF936B
:10054000BF93EF93FF93E0910201F09103010995AE
:10055000FF91EF91BF91AF919F918F917F916F919B
:100560005F914F913F912F910F900FBE0F901F9071
:1005700018951F920F920FB60F9211242F933F934D
:100580004F935F936F937F938F939F93AF93BF939B
:10059000EF93FF93E0910001F09101010995FF9124
:1005A000EF91BF91AF919F918F917F916F915F91EB
:1005B0004F913F912F910F900FBE0F901F90189564
:1005C0001F920F920FB60F9211242F933F934F93C8
:1005D0005F936F937F938F939F93AF93BF93EF93AB
:1005E000FF938091B900887F803609F44AC0F0F506
:1005F000883209F4A5C018F5803109F499C0B8F41F
:10060000882309F4F5C0883009F492C0FF91EF9176
:10061000BF91AF919F918F917F916F915F914F911A
:100620003F912F910F900FBE0F901F90189588311A
:1006300009F486C0803251F78093640114C080347D
:1006400009F49BC040F48033B9F38833F9F6809302
:10065000640185ECAEC0803509F483C0883509F4A7
:1006600094C0883499F60E949201D0CF883909F459
:100670008AC038F5883729F050F4883611F0803771
:1006800029F683E0809365011092630155C0883894
:1006900009F479C0803919F0803809F0B7CF80911A
:1006A0006301803208F06FC0E091630181E08E0F3A
:1006B000809363018091BB00F0E0ED5BFE4F80838F
:1006C0003BC0803B39F0D0F4803A09F477C0883AD7
:1006D00009F09CCF84E08093650110924201109252
:1006E0004101F0E0E0E009958091410181110FC0E6
:1006F00081E0809341011092210109C0803C09F4FE
:10070000A8CF883C09F4A5CF883B09F07FCFE091C2
:10071000420181E08E0F80934201F0E0EF5DFE4FD9
:1007200080818093BB00909142018091410129C05A
:1007300080918A018093BB0085EC8093BC0066CFDA
:100740009091890180918801981758F5E09189016D
:1007500081E08E0F80938901F0E0E859FE4F80819F
:10076000E9CFE091890181E08E0F8093890180912A
:10077000BB00F0E0E859FE4F8083909189018091A1
:1007800088019817C8F285E8D8CFE091890181E007
:100790008E0F809389018091BB00F0E0E859FE4FF5
:1007A00080838091670181115ECF81E08093660133
:1007B00084EA8093BC001092650128CF85EC809379
:1007C000BC001092650180916301803230F4E091A9
:1007D0006301F0E0ED5BFE4F10826091630170E019
:1007E00083E491E0F0E0E0E00995109263010ECF20
:1007F0001092640138CF1F920F920FB60F921124FE
:100800000F900FBE0F901F901895E4E9F1E013824E
:10081000128288EE93E0A0E0B0E084839583A68303
:10082000B78388E091E09183808385EC90E09587A1
:10083000848784EC90E09787868780EC90E0918BAA
:10084000808B81EC90E0938B828B82EC90E0958B97
:10085000848B86EC90E0978B868B118E128E138E94
:10086000148E0895CF93DF93CDB7DEB7A1970FB65F
:10087000F894DEBF0FBECDBF789484B5826084BD8E
:1008800084B5816084BD85B5826085BD85B5816094
:1008900085BD80916E00816080936E001092810012
:1008A00080918100826080938100809181008160CD
:1008B000809381008091800081608093800080918E
:1008C000B10084608093B1008091B000816080931A
:1008D000B00080917A00846080937A0080917A00E1
:1008E000826080937A0080917A00816080937A00A0
:1008F00080917A00806880937A001092C100E09124
:10090000A401F091A50182E08083E091A001F09123
:10091000A1011082E091A201F091A3018FEC8083EC
:100920001092AC01E091A801F091A90186E08083CA
:10093000E091A601F091A701808180618083E09120
:10094000A601F091A701808188608083E091A601D3
:10095000F091A701808180688083E091A601F091E9
:10096000A70180818F7D808390E3D92E21E3C22E61
:100970008E01015E1F4F30E0E32E30E0F32E19A20E
:10098000D8A2CF8EF80101900020E9F73197AF018E
:10099000401B510BB80184E991E00E945F0042E0E6
:1009A00050E066E171E084E991E00E945F000E94FE
:1009B0006C012B013C0180ED882E87E0982EA12C44
:1009C000B12C0E946C016419750986099709683E6B
:1009D000734081059105A8F321E0821A9108A108CE
:1009E000B10888EE480E83E0581E611C711C81140A
:1009F0009104A104B10429F7E114F10409F4BFCF73
:100A00000E94C900882309F4BACF0E940000B7CF22
:100A1000EE0FFF1F0590F491E02D0994F894FFCF9D
:100A20009101910100000000FF005F008C004C016B
:0A0A3000BD009B00AF000D0A00009E
:107E0000112484B714BE81FFF0D085E080938100F7
:107E100082E08093C00088E18093C10086E0809377
:107E2000C20080E18093C4008EE0C9D0259A86E02C
:107E300020E33CEF91E0309385002093840096BBD3
:107E4000B09BFECF1D9AA8958150A9F7CC24DD24C4
:107E500088248394B5E0AB2EA1E19A2EF3E0BF2EE7
:107E6000A2D0813461F49FD0082FAFD0023811F036
:107E7000013811F484E001C083E08DD089C08234E0
:107E800011F484E103C0853419F485E0A6D080C0E4
:107E9000853579F488D0E82EFF2485D0082F10E0AE
:107EA000102F00270E291F29000F111F8ED06801E7
:107EB0006FC0863521F484E090D080E0DECF843638
:107EC00009F040C070D06FD0082F6DD080E0C81688
:107ED00080E7D80618F4F601B7BEE895C0E0D1E017
:107EE00062D089930C17E1F7F0E0CF16F0E7DF06D8
:107EF00018F0F601B7BEE89568D007B600FCFDCFD4
:107F0000A601A0E0B1E02C9130E011968C91119780
:107F100090E0982F8827822B932B1296FA010C0160
:107F200087BEE89511244E5F5F4FF1E0A038BF0790
:107F300051F7F601A7BEE89507B600FCFDCF97BE46
:107F4000E89526C08437B1F42ED02DD0F82E2BD052
:107F50003CD0F601EF2C8F010F5F1F4F84911BD097
:107F6000EA94F801C1F70894C11CD11CFA94CF0C13
:107F7000D11C0EC0853739F428D08EE10CD085E9AC
:107F80000AD08FE07ACF813511F488E018D01DD067
:107F900080E101D065CF982F8091C00085FFFCCF94
:107FA0009093C60008958091C00087FFFCCF809118
:107FB000C00084FD01C0A8958091C6000895E0E648
:107FC000F0E098E1908380830895EDDF803219F02E
:107FD00088E0F5DFFFCF84E1DECF1F93182FE3DFCA
:107FE0001150E9F7F2DF1F91089580E0E8DFEE27F6
:047FF000FF270994CA
:027FFE00040479
:0400000300007E007B
:00000001FF
